101 123456789 1234567892101081259A094101MYBANK NAME            MY COMPANY NAME      PPDED
500 123456789 123456789210108123PPDPPD Example         ID1234567                     ...
600 123456789 123456789211108123PPDExample Transaction    ID001                     ...
600 123456789 123456789212108123PPDExample Transaction    ID002                     ...
600 123456789 123456789213108123PPDExample Transaction    ID003                     ...
600 123456789 123456789214108123PPDExample Transaction    ID004                     ...
800000000400000000000000004123456789                         123456789
500 123456789 123456789210108123PPDPPD Example         ID1234568                     ...
600 123456789 123456789221108123PPDExample Transaction    ID005                     ...
600 123456789 123456789222108123PPDExample Transaction    ID006                     ...
600 123456789 123456789223108123PPDExample Transaction    ID007                     ...
600 123456789 123456789224108123PPDExample Transaction    ID008                     ...
800000000400000000000000004123456789                         123456789
500 123456789 123456789210108123PPDPPD Example         ID1234569                     ...
600 123456789 123456789231108123PPDExample Transaction    ID009                     ...
600 123456789 123456789232108123PPDExample Transaction    ID010                     ...
600 123456789 123456789233108123PPDExample Transaction    ID011                     ...
600 123456789 123456789234108123PPDExample Transaction    ID012                     ...
800000000400000000000000004123456789                         123456789
500 123456789 123456789210108123PPDPPD Example         ID1234570                     ...
600 123456789 123456789241108123PPDExample Transaction    ID013                     ...
600 123456789 123456789242108123PPDExample Transaction    ID014                     ...
600 123456789 123456789243108123PPDExample Transaction    ID015                     ...
600 123456789 123456789244108123PPDExample Transaction    ID016                     ...
800000000400000000000000004123456789                         123456789
9000004000004000000160000000000000016123456789
